{
  "address": "0x7ac24541196C9d27267F3d032FEa0a4Fa5f5F15b",
  "abi": [
    {
      "inputs": [
        {
          "internalType": "address",
          "name": "_tokenA",
          "type": "address"
        },
        {
          "internalType": "address",
          "name": "_tokenB",
          "type": "address"
        }
      ],
      "stateMutability": "nonpayable",
      "type": "constructor"
    },
    {
      "inputs": [
        {
          "internalType": "address",
          "name": "owner",
          "type": "address"
        }
      ],
      "name": "OwnableInvalidOwner",
      "type": "error"
    },
    {
      "inputs": [
        {
          "internalType": "address",
          "name": "account",
          "type": "address"
        }
      ],
      "name": "OwnableUnauthorizedAccount",
      "type": "error"
    },
    {
      "anonymous": false,
      "inputs": [
        {
          "indexed": false,
          "internalType": "uint256",
          "name": "amountA",
          "type": "uint256"
        },
        {
          "indexed": false,
          "internalType": "uint256",
          "name": "amountB",
          "type": "uint256"
        }
      ],
      "name": "LiquidityAdded",
      "type": "event"
    },
    {
      "anonymous": false,
      "inputs": [
        {
          "indexed": false,
          "internalType": "uint256",
          "name": "amountA",
          "type": "uint256"
        },
        {
          "indexed": false,
          "internalType": "uint256",
          "name": "amountB",
          "type": "uint256"
        }
      ],
      "name": "LiquidityRemoved",
      "type": "event"
    },
    {
      "anonymous": false,
      "inputs": [
        {
          "indexed": true,
          "internalType": "address",
          "name": "previousOwner",
          "type": "address"
        },
        {
          "indexed": true,
          "internalType": "address",
          "name": "newOwner",
          "type": "address"
        }
      ],
      "name": "OwnershipTransferred",
      "type": "event"
    },
    {
      "anonymous": false,
      "inputs": [
        {
          "indexed": true,
          "internalType": "address",
          "name": "user",
          "type": "address"
        },
        {
          "indexed": false,
          "internalType": "uint256",
          "name": "amountIn",
          "type": "uint256"
        },
        {
          "indexed": false,
          "internalType": "uint256",
          "name": "amountOut",
          "type": "uint256"
        }
      ],
      "name": "TokenSwapped",
      "type": "event"
    },
    {
      "inputs": [
        {
          "internalType": "uint256",
          "name": "amountA",
          "type": "uint256"
        },
        {
          "internalType": "uint256",
          "name": "amountB",
          "type": "uint256"
        }
      ],
      "name": "addLiquidity",
      "outputs": [],
      "stateMutability": "nonpayable",
      "type": "function"
    },
    {
      "inputs": [
        {
          "internalType": "address",
          "name": "_token",
          "type": "address"
        }
      ],
      "name": "getPrice",
      "outputs": [
        {
          "internalType": "uint256",
          "name": "",
          "type": "uint256"
        }
      ],
      "stateMutability": "view",
      "type": "function"
    },
    {
      "inputs": [],
      "name": "owner",
      "outputs": [
        {
          "internalType": "address",
          "name": "",
          "type": "address"
        }
      ],
      "stateMutability": "view",
      "type": "function"
    },
    {
      "inputs": [
        {
          "internalType": "uint256",
          "name": "amountA",
          "type": "uint256"
        },
        {
          "internalType": "uint256",
          "name": "amountB",
          "type": "uint256"
        }
      ],
      "name": "removeLiquidity",
      "outputs": [],
      "stateMutability": "nonpayable",
      "type": "function"
    },
    {
      "inputs": [],
      "name": "renounceOwnership",
      "outputs": [],
      "stateMutability": "nonpayable",
      "type": "function"
    },
    {
      "inputs": [
        {
          "internalType": "uint256",
          "name": "amountAIn",
          "type": "uint256"
        }
      ],
      "name": "swapAforB",
      "outputs": [],
      "stateMutability": "nonpayable",
      "type": "function"
    },
    {
      "inputs": [
        {
          "internalType": "uint256",
          "name": "amountBIn",
          "type": "uint256"
        }
      ],
      "name": "swapBforA",
      "outputs": [],
      "stateMutability": "nonpayable",
      "type": "function"
    },
    {
      "inputs": [],
      "name": "tokenA",
      "outputs": [
        {
          "internalType": "contract IERC20",
          "name": "",
          "type": "address"
        }
      ],
      "stateMutability": "view",
      "type": "function"
    },
    {
      "inputs": [],
      "name": "tokenB",
      "outputs": [
        {
          "internalType": "contract IERC20",
          "name": "",
          "type": "address"
        }
      ],
      "stateMutability": "view",
      "type": "function"
    },
    {
      "inputs": [
        {
          "internalType": "address",
          "name": "newOwner",
          "type": "address"
        }
      ],
      "name": "transferOwnership",
      "outputs": [],
      "stateMutability": "nonpayable",
      "type": "function"
    }
  ],
  "transactionHash": "0xbe0aa78188423310b888e7343f718bc48a56d8ae149e881c95e1b92301ba8388",
  "args": [
    "0xDB5B376aE994a23917a64713dA1b0628e5579D2D",
    "0x1c3A3F0FC201C96f199c6E6Cd4f4E31649531477"
  ],
  "numDeployments": 2,
  "solcInputHash": "bd3bf8d6a9918114b23fd95379241107",
  "bytecode": "0x608060405234801561001057600080fd5b50604051610f52380380610f5283398101604081905261002f916100fc565b338061005557604051631e4fbdf760e01b81526000600482015260240160405180910390fd5b61005e81610090565b50600180546001600160a01b039384166001600160a01b0319918216179091556002805492909316911617905561012f565b600080546001600160a01b038381166001600160a01b0319831681178455604051919092169283917f8be0079c531659141344cd1fd0a4f28419497f9722a3daafe3b4186f6b6457e09190a35050565b80516001600160a01b03811681146100f757600080fd5b919050565b6000806040838503121561010f57600080fd5b610118836100e0565b9150610126602084016100e0565b90509250929050565b610e148061013e6000396000f3fe608060405234801561001057600080fd5b506004361061009e5760003560e01c80638da5cb5b116100665780638da5cb5b146101245780639cd441da146101355780639d7de6b314610148578063e4f1f70a1461015b578063f2fde38b1461016e57600080fd5b80630fc63d10146100a357806341976e09146100d35780635f64b55b146100f4578063715018a6146101075780638014a7aa14610111575b600080fd5b6001546100b6906001600160a01b031681565b6040516001600160a01b0390911681526020015b60405180910390f35b6100e66100e1366004610cb2565b610181565b6040519081526020016100ca565b6002546100b6906001600160a01b031681565b61010f6103f6565b005b61010f61011f366004610ce2565b61040a565b6000546001600160a01b03166100b6565b61010f610143366004610cfb565b610663565b61010f610156366004610cfb565b6107eb565b61010f610169366004610ce2565b610a37565b61010f61017c366004610cb2565b610bcf565b6001546000906001600160a01b03838116911614806101ad57506002546001600160a01b038381169116145b6101ee5760405162461bcd60e51b815260206004820152600d60248201526c24b73b30b634b2103a37b5b2b760991b60448201526064015b60405180910390fd5b6001546001600160a01b038381169116146102fc576002546040516370a0823160e01b81523060048201526001600160a01b03909116906370a0823190602401602060405180830381865afa15801561024b573d6000803e3d6000fd5b505050506040513d601f19601f8201168201806040525081019061026f9190610d1d565b6001546040516370a0823160e01b81523060048201526001600160a01b03909116906370a0823190602401602060405180830381865afa1580156102b7573d6000803e3d6000fd5b505050506040513d601f19601f820116820180604052508101906102db9190610d1d565b6102ed90670de0b6b3a7640000610d4c565b6102f79190610d63565b6103f0565b6001546040516370a0823160e01b81523060048201526001600160a01b03909116906370a0823190602401602060405180830381865afa158015610344573d6000803e3d6000fd5b505050506040513d601f19601f820116820180604052508101906103689190610d1d565b6002546040516370a0823160e01b81523060048201526001600160a01b03909116906370a0823190602401602060405180830381865afa1580156103b0573d6000803e3d6000fd5b505050506040513d601f19601f820116820180604052508101906103d49190610d1d565b6103e690670de0b6b3a7640000610d4c565b6103f09190610d63565b92915050565b6103fe610c0d565b6104086000610c3a565b565b6000811161044f5760405162461bcd60e51b81526020600482015260126024820152710416d6f756e74206d757374206265203e20360741b60448201526064016101e5565b6002546040516370a0823160e01b81523060048201526000916105349184916001600160a01b0316906370a0823190602401602060405180830381865afa15801561049e573d6000803e3d6000fd5b505050506040513d601f19601f820116820180604052508101906104c29190610d1d565b6001546040516370a0823160e01b81523060048201526001600160a01b03909116906370a08231906024015b602060405180830381865afa15801561050b573d6000803e3d6000fd5b505050506040513d601f19601f8201168201806040525081019061052f9190610d1d565b610c8a565b6002546040516323b872dd60e01b81529192506001600160a01b0316906323b872dd9061056990339030908790600401610d85565b6020604051808303816000875af1158015610588573d6000803e3d6000fd5b505050506040513d601f19601f820116820180604052508101906105ac9190610da9565b5060015460405163a9059cbb60e01b8152336004820152602481018390526001600160a01b039091169063a9059cbb906044015b6020604051808303816000875af11580156105ff573d6000803e3d6000fd5b505050506040513d601f19601f820116820180604052508101906106239190610da9565b50604080518381526020810183905233917fd5a1cd88ddd329cc1ddf861a21708efa9ef3136b88e1420c21f91ef6f95ad024910160405180910390a25050565b61066b610c0d565b60008211801561067b5750600081115b6106bd5760405162461bcd60e51b81526020600482015260136024820152720416d6f756e7473206d757374206265203e203606c1b60448201526064016101e5565b6001546040516323b872dd60e01b81526001600160a01b03909116906323b872dd906106f190339030908790600401610d85565b6020604051808303816000875af1158015610710573d6000803e3d6000fd5b505050506040513d601f19601f820116820180604052508101906107349190610da9565b506002546040516323b872dd60e01b81526001600160a01b03909116906323b872dd9061076990339030908690600401610d85565b6020604051808303816000875af1158015610788573d6000803e3d6000fd5b505050506040513d601f19601f820116820180604052508101906107ac9190610da9565b5060408051838152602081018390527f38f8a0c92f4c5b0b6877f878cb4c0c8d348a47b76d716c8e78f425043df9515b91015b60405180910390a15050565b6107f3610c0d565b6001546040516370a0823160e01b81523060048201526001600160a01b03909116906370a0823190602401602060405180830381865afa15801561083b573d6000803e3d6000fd5b505050506040513d601f19601f8201168201806040525081019061085f9190610d1d565b82111580156108d957506002546040516370a0823160e01b81523060048201526001600160a01b03909116906370a0823190602401602060405180830381865afa1580156108b1573d6000803e3d6000fd5b505050506040513d601f19601f820116820180604052508101906108d59190610d1d565b8111155b6109155760405162461bcd60e51b815260206004820152600d60248201526c4c6f77206c697175696469747960981b60448201526064016101e5565b60015460405163a9059cbb60e01b8152336004820152602481018490526001600160a01b039091169063a9059cbb906044016020604051808303816000875af1158015610966573d6000803e3d6000fd5b505050506040513d601f19601f8201168201806040525081019061098a9190610da9565b5060025460405163a9059cbb60e01b8152336004820152602481018390526001600160a01b039091169063a9059cbb906044016020604051808303816000875af11580156109dc573d6000803e3d6000fd5b505050506040513d601f19601f82011682018060405250810190610a009190610da9565b5060408051838152602081018390527f6f0f96292ae0038c04f9b6bab30f185d9ca02c471d0983f563f2a4f674aef13791016107df565b60008111610a7c5760405162461bcd60e51b81526020600482015260126024820152710416d6f756e74206d757374206265203e20360741b60448201526064016101e5565b6001546040516370a0823160e01b8152306004820152600091610b1f9184916001600160a01b0316906370a0823190602401602060405180830381865afa158015610acb573d6000803e3d6000fd5b505050506040513d601f19601f82011682018060405250810190610aef9190610d1d565b6002546040516370a0823160e01b81523060048201526001600160a01b03909116906370a08231906024016104ee565b6001546040516323b872dd60e01b81529192506001600160a01b0316906323b872dd90610b5490339030908790600401610d85565b6020604051808303816000875af1158015610b73573d6000803e3d6000fd5b505050506040513d601f19601f82011682018060405250810190610b979190610da9565b5060025460405163a9059cbb60e01b8152336004820152602481018390526001600160a01b039091169063a9059cbb906044016105e0565b610bd7610c0d565b6001600160a01b038116610c0157604051631e4fbdf760e01b8152600060048201526024016101e5565b610c0a81610c3a565b50565b6000546001600160a01b031633146104085760405163118cdaa760e01b81523360048201526024016101e5565b600080546001600160a01b038381166001600160a01b0319831681178455604051919092169283917f8be0079c531659141344cd1fd0a4f28419497f9722a3daafe3b4186f6b6457e09190a35050565b6000610c968484610dcb565b610ca08386610d4c565b610caa9190610d63565b949350505050565b600060208284031215610cc457600080fd5b81356001600160a01b0381168114610cdb57600080fd5b9392505050565b600060208284031215610cf457600080fd5b5035919050565b60008060408385031215610d0e57600080fd5b50508035926020909101359150565b600060208284031215610d2f57600080fd5b5051919050565b634e487b7160e01b600052601160045260246000fd5b80820281158282048414176103f0576103f0610d36565b600082610d8057634e487b7160e01b600052601260045260246000fd5b500490565b6001600160a01b039384168152919092166020820152604081019190915260600190565b600060208284031215610dbb57600080fd5b81518015158114610cdb57600080fd5b808201808211156103f0576103f0610d3656fea264697066735822122017546015a78c8f92ddf1f405b4e51dc24204d4ce0493fda1f8c8120ade4ff97664736f6c63430008160033",
  "devdoc": {
    "errors": {
      "OwnableInvalidOwner(address)": [
        {
          "details": "The owner is not a valid owner account. (eg. `address(0)`)"
        }
      ],
      "OwnableUnauthorizedAccount(address)": [
        {
          "details": "The caller account is not authorized to perform an operation."
        }
      ]
    },
    "kind": "dev",
    "methods": {
      "owner()": {
        "details": "Returns the address of the current owner."
      },
      "renounceOwnership()": {
        "details": "Leaves the contract without owner. It will not be possible to call `onlyOwner` functions. Can only be called by the current owner. NOTE: Renouncing ownership will leave the contract without an owner, thereby disabling any functionality that is only available to the owner."
      },
      "transferOwnership(address)": {
        "details": "Transfers ownership of the contract to a new account (`newOwner`). Can only be called by the current owner."
      }
    },
    "version": 1
  },
  "userdoc": {
    "kind": "user",
    "methods": {},
    "version": 1
  },
  "storageLayout": {
    "storage": [
      {
        "astId": 8,
        "contract": "contracts/SimpleDEX.sol:SimpleDEX",
        "label": "_owner",
        "offset": 0,
        "slot": "0",
        "type": "t_address"
      },
      {
        "astId": 264,
        "contract": "contracts/SimpleDEX.sol:SimpleDEX",
        "label": "tokenA",
        "offset": 0,
        "slot": "1",
        "type": "t_contract(IERC20)225"
      },
      {
        "astId": 267,
        "contract": "contracts/SimpleDEX.sol:SimpleDEX",
        "label": "tokenB",
        "offset": 0,
        "slot": "2",
        "type": "t_contract(IERC20)225"
      }
    ],
    "types": {
      "t_address": {
        "encoding": "inplace",
        "label": "address",
        "numberOfBytes": "20"
      },
      "t_contract(IERC20)225": {
        "encoding": "inplace",
        "label": "contract IERC20",
        "numberOfBytes": "20"
      }
    }
  }
}